{
  "contractName": "TasksContract",
  "abi": [
    {
      "anonymous": false,
      "inputs": [
        {
          "indexed": false,
          "internalType": "uint256",
          "name": "taskId",
          "type": "uint256"
        },
        {
          "indexed": false,
          "internalType": "bool",
          "name": "isDeleted",
          "type": "bool"
        }
      ],
      "name": "DeleteTask",
      "type": "event"
    },
    {
      "anonymous": false,
      "inputs": [
        {
          "indexed": false,
          "internalType": "address",
          "name": "recipent",
          "type": "address"
        },
        {
          "indexed": false,
          "internalType": "uint256",
          "name": "taskId",
          "type": "uint256"
        }
      ],
      "name": "TaskCreated",
      "type": "event"
    },
    {
      "anonymous": false,
      "inputs": [
        {
          "indexed": false,
          "internalType": "uint256",
          "name": "id",
          "type": "uint256"
        },
        {
          "indexed": false,
          "internalType": "bool",
          "name": "done",
          "type": "bool"
        }
      ],
      "name": "TaskToggleDone",
      "type": "event"
    },
    {
      "inputs": [],
      "name": "taskCounter",
      "outputs": [
        {
          "internalType": "uint256",
          "name": "",
          "type": "uint256"
        }
      ],
      "stateMutability": "view",
      "type": "function",
      "constant": true
    },
    {
      "inputs": [
        {
          "internalType": "uint256",
          "name": "",
          "type": "uint256"
        }
      ],
      "name": "taskToOwner",
      "outputs": [
        {
          "internalType": "address",
          "name": "",
          "type": "address"
        }
      ],
      "stateMutability": "view",
      "type": "function",
      "constant": true
    },
    {
      "inputs": [
        {
          "internalType": "string",
          "name": "_title",
          "type": "string"
        },
        {
          "internalType": "string",
          "name": "_description",
          "type": "string"
        }
      ],
      "name": "createTask",
      "outputs": [],
      "stateMutability": "nonpayable",
      "type": "function"
    },
    {
      "inputs": [],
      "name": "getMyTasks",
      "outputs": [
        {
          "components": [
            {
              "internalType": "uint256",
              "name": "id",
              "type": "uint256"
            },
            {
              "internalType": "string",
              "name": "title",
              "type": "string"
            },
            {
              "internalType": "string",
              "name": "description",
              "type": "string"
            },
            {
              "internalType": "bool",
              "name": "done",
              "type": "bool"
            },
            {
              "internalType": "bool",
              "name": "isDeleted",
              "type": "bool"
            },
            {
              "internalType": "uint256",
              "name": "createdAt",
              "type": "uint256"
            }
          ],
          "internalType": "struct TasksContract.Task[]",
          "name": "",
          "type": "tuple[]"
        }
      ],
      "stateMutability": "view",
      "type": "function",
      "constant": true
    },
    {
      "inputs": [
        {
          "internalType": "uint256",
          "name": "taskId",
          "type": "uint256"
        },
        {
          "internalType": "bool",
          "name": "isDeleted",
          "type": "bool"
        }
      ],
      "name": "deleteTask",
      "outputs": [],
      "stateMutability": "nonpayable",
      "type": "function"
    },
    {
      "inputs": [
        {
          "internalType": "uint256",
          "name": "_id",
          "type": "uint256"
        }
      ],
      "name": "toggleDone",
      "outputs": [],
      "stateMutability": "nonpayable",
      "type": "function"
    }
  ],
  "bytecode": "0x608060405234801561001057600080fd5b5061140e806100206000396000f3fe608060405234801561001057600080fd5b50600436106100625760003560e01c8063292a45851461006757806358671730146100835780636641c6c4146100a15780636e13f818146100d1578063aaba2907146100ef578063d81ef7391461010b575b600080fd5b610081600480360381019061007c9190610e7e565b610127565b005b61008b6102af565b6040516100989190610f0f565b60405180910390f35b6100bb60048036038101906100b69190610f56565b6102b5565b6040516100c89190610fc4565b60405180910390f35b6100d96102e8565b6040516100e691906111e3565b60405180910390f35b61010960048036038101906101049190611231565b610696565b005b61012560048036038101906101209190610f56565b61099e565b005b6000600180549050905060016040518060c001604052808381526020018581526020018481526020016000151581526020016000151581526020014281525090806001815401808255809150506001900390600052602060002090600502016000909190919091506000820151816000015560208201518160010190805190602001906101b5929190610c47565b5060408201518160020190805190602001906101d2929190610c47565b5060608201518160030160006101000a81548160ff02191690831515021790555060808201518160030160016101000a81548160ff02191690831515021790555060a082015181600401555050336002600083815260200190815260200160002060006101000a81548173ffffffffffffffffffffffffffffffffffffffff021916908373ffffffffffffffffffffffffffffffffffffffff1602179055507fb1c0ef93ef5afc0800a5789b004fdaf5931873276c7ccb409e7d1a310906886a33826040516102a2929190611271565b60405180910390a1505050565b60005481565b60026020528060005260406000206000915054906101000a900473ffffffffffffffffffffffffffffffffffffffff1681565b6060600060018054905067ffffffffffffffff81111561030b5761030a610d53565b5b60405190808252806020026020018201604052801561034457816020015b610331610ccd565b8152602001906001900390816103295790505b5090506000805b6001805490508110156105dc573373ffffffffffffffffffffffffffffffffffffffff166002600083815260200190815260200160002060009054906101000a900473ffffffffffffffffffffffffffffffffffffffff1673ffffffffffffffffffffffffffffffffffffffff161480156103fc575060001515600182815481106103d9576103d861129a565b5b906000526020600020906005020160030160019054906101000a900460ff161515145b156105c957600181815481106104155761041461129a565b5b90600052602060002090600502016040518060c001604052908160008201548152602001600182018054610448906112f8565b80601f0160208091040260200160405190810160405280929190818152602001828054610474906112f8565b80156104c15780601f10610496576101008083540402835291602001916104c1565b820191906000526020600020905b8154815290600101906020018083116104a457829003601f168201915b505050505081526020016002820180546104da906112f8565b80601f0160208091040260200160405190810160405280929190818152602001828054610506906112f8565b80156105535780601f1061052857610100808354040283529160200191610553565b820191906000526020600020905b81548152906001019060200180831161053657829003601f168201915b505050505081526020016003820160009054906101000a900460ff161515151581526020016003820160019054906101000a900460ff161515151581526020016004820154815250508383815181106105af576105ae61129a565b5b602002602001018190525081806105c590611358565b9250505b80806105d490611358565b91505061034b565b5060008167ffffffffffffffff8111156105f9576105f8610d53565b5b60405190808252806020026020018201604052801561063257816020015b61061f610ccd565b8152602001906001900390816106175790505b50905060005b8281101561068c578381815181106106535761065261129a565b5b602002602001015182828151811061066e5761066d61129a565b5b6020026020010181905250808061068490611358565b915050610638565b5080935050505090565b3373ffffffffffffffffffffffffffffffffffffffff166002600084815260200190815260200160002060009054906101000a900473ffffffffffffffffffffffffffffffffffffffff1673ffffffffffffffffffffffffffffffffffffffff160361099a576000600183815481106107125761071161129a565b5b90600052602060002090600502016040518060c001604052908160008201548152602001600182018054610745906112f8565b80601f0160208091040260200160405190810160405280929190818152602001828054610771906112f8565b80156107be5780601f10610793576101008083540402835291602001916107be565b820191906000526020600020905b8154815290600101906020018083116107a157829003601f168201915b505050505081526020016002820180546107d7906112f8565b80601f0160208091040260200160405190810160405280929190818152602001828054610803906112f8565b80156108505780601f1061082557610100808354040283529160200191610850565b820191906000526020600020905b81548152906001019060200180831161083357829003601f168201915b505050505081526020016003820160009054906101000a900460ff161515151581526020016003820160019054906101000a900460ff1615151515815260200160048201548152505090508181608001901515908115158152505080600184815481106108c0576108bf61129a565b5b90600052602060002090600502016000820151816000015560208201518160010190805190602001906108f4929190610c47565b506040820151816002019080519060200190610911929190610c47565b5060608201518160030160006101000a81548160ff02191690831515021790555060808201518160030160016101000a81548160ff02191690831515021790555060a082015181600401559050507ff88a35c3d2016c409a46570b994a17b408dbc83c14a03f521512d50b85386d0683836040516109909291906113af565b60405180910390a1505b5050565b6000600182815481106109b4576109b361129a565b5b90600052602060002090600502016040518060c0016040529081600082015481526020016001820180546109e7906112f8565b80601f0160208091040260200160405190810160405280929190818152602001828054610a13906112f8565b8015610a605780601f10610a3557610100808354040283529160200191610a60565b820191906000526020600020905b815481529060010190602001808311610a4357829003601f168201915b50505050508152602001600282018054610a79906112f8565b80601f0160208091040260200160405190810160405280929190818152602001828054610aa5906112f8565b8015610af25780601f10610ac757610100808354040283529160200191610af2565b820191906000526020600020905b815481529060010190602001808311610ad557829003601f168201915b505050505081526020016003820160009054906101000a900460ff161515151581526020016003820160019054906101000a900460ff1615151515815260200160048201548152505090508060600151158160600190151590811515815250508060018381548110610b6757610b6661129a565b5b9060005260206000209060050201600082015181600001556020820151816001019080519060200190610b9b929190610c47565b506040820151816002019080519060200190610bb8929190610c47565b5060608201518160030160006101000a81548160ff02191690831515021790555060808201518160030160016101000a81548160ff02191690831515021790555060a082015181600401559050507f389dee00d487dd41dd5bf0f43eeaa5b663b3af022d52368df89d388150295f45828260600151604051610c3b9291906113af565b60405180910390a15050565b828054610c53906112f8565b90600052602060002090601f016020900481019282610c755760008555610cbc565b82601f10610c8e57805160ff1916838001178555610cbc565b82800160010185558215610cbc579182015b82811115610cbb578251825591602001919060010190610ca0565b5b509050610cc99190610d07565b5090565b6040518060c00160405280600081526020016060815260200160608152602001600015158152602001600015158152602001600081525090565b5b80821115610d20576000816000905550600101610d08565b5090565b6000604051905090565b600080fd5b600080fd5b600080fd5b600080fd5b6000601f19601f8301169050919050565b7f4e487b7100000000000000000000000000000000000000000000000000000000600052604160045260246000fd5b610d8b82610d42565b810181811067ffffffffffffffff82111715610daa57610da9610d53565b5b80604052505050565b6000610dbd610d24565b9050610dc98282610d82565b919050565b600067ffffffffffffffff821115610de957610de8610d53565b5b610df282610d42565b9050602081019050919050565b82818337600083830152505050565b6000610e21610e1c84610dce565b610db3565b905082815260208101848484011115610e3d57610e3c610d3d565b5b610e48848285610dff565b509392505050565b600082601f830112610e6557610e64610d38565b5b8135610e75848260208601610e0e565b91505092915050565b60008060408385031215610e9557610e94610d2e565b5b600083013567ffffffffffffffff811115610eb357610eb2610d33565b5b610ebf85828601610e50565b925050602083013567ffffffffffffffff811115610ee057610edf610d33565b5b610eec85828601610e50565b9150509250929050565b6000819050919050565b610f0981610ef6565b82525050565b6000602082019050610f246000830184610f00565b92915050565b610f3381610ef6565b8114610f3e57600080fd5b50565b600081359050610f5081610f2a565b92915050565b600060208284031215610f6c57610f6b610d2e565b5b6000610f7a84828501610f41565b91505092915050565b600073ffffffffffffffffffffffffffffffffffffffff82169050919050565b6000610fae82610f83565b9050919050565b610fbe81610fa3565b82525050565b6000602082019050610fd96000830184610fb5565b92915050565b600081519050919050565b600082825260208201905092915050565b6000819050602082019050919050565b61101481610ef6565b82525050565b600081519050919050565b600082825260208201905092915050565b60005b83811015611054578082015181840152602081019050611039565b83811115611063576000848401525b50505050565b60006110748261101a565b61107e8185611025565b935061108e818560208601611036565b61109781610d42565b840191505092915050565b60008115159050919050565b6110b7816110a2565b82525050565b600060c0830160008301516110d5600086018261100b565b50602083015184820360208601526110ed8282611069565b915050604083015184820360408601526111078282611069565b915050606083015161111c60608601826110ae565b50608083015161112f60808601826110ae565b5060a083015161114260a086018261100b565b508091505092915050565b600061115983836110bd565b905092915050565b6000602082019050919050565b600061117982610fdf565b6111838185610fea565b93508360208202850161119585610ffb565b8060005b858110156111d157848403895281516111b2858261114d565b94506111bd83611161565b925060208a01995050600181019050611199565b50829750879550505050505092915050565b600060208201905081810360008301526111fd818461116e565b905092915050565b61120e816110a2565b811461121957600080fd5b50565b60008135905061122b81611205565b92915050565b6000806040838503121561124857611247610d2e565b5b600061125685828601610f41565b92505060206112678582860161121c565b9150509250929050565b60006040820190506112866000830185610fb5565b6112936020830184610f00565b9392505050565b7f4e487b7100000000000000000000000000000000000000000000000000000000600052603260045260246000fd5b7f4e487b7100000000000000000000000000000000000000000000000000000000600052602260045260246000fd5b6000600282049050600182168061131057607f821691505b602082108103611323576113226112c9565b5b50919050565b7f4e487b7100000000000000000000000000000000000000000000000000000000600052601160045260246000fd5b600061136382610ef6565b91507fffffffffffffffffffffffffffffffffffffffffffffffffffffffffffffffff820361139557611394611329565b5b600182019050919050565b6113a9816110a2565b82525050565b60006040820190506113c46000830185610f00565b6113d160208301846113a0565b939250505056fea264697066735822122016db9bcb03c2d0e8665babcf6b7dd24d4cf27a311c9c746f8c1ffc1e4d1a90a364736f6c634300080e0033",
  "immutableReferences": {},
  "source": "// SPDX-License-Identifier: MIT\npragma solidity ^0.8.14;\n\ncontract TasksContract {\n    uint256 public taskCounter;\n\n    event TaskCreated(address recipent, uint256 taskId);\n\n    event DeleteTask(uint256 taskId, bool isDeleted);\n\n    event TaskToggleDone(uint256 id, bool done);\n\n    struct Task {\n        uint256 id;\n        string title;\n        string description;\n        bool done;\n        bool isDeleted;\n        uint256 createdAt;\n    }\n\n    Task[] private tasks;\n\n    mapping(uint256 => address) public taskToOwner;\n\n    function createTask(string memory _title, string memory _description)\n        public\n    {\n        uint256 taskId = tasks.length;\n\n        tasks.push(\n            Task(\n                taskId,\n                _title,\n                _description,\n                false,\n                false,\n                block.timestamp\n            )\n        );\n        taskToOwner[taskId] = msg.sender;\n        emit TaskCreated(msg.sender, taskId);\n    }\n\n    function getMyTasks() public view returns (Task[] memory) {\n        Task[] memory temporary = new Task[](tasks.length);\n        uint256 counter = 0;\n        for (uint256 i = 0; i < tasks.length; i++) {\n            if (taskToOwner[i] == msg.sender && tasks[i].isDeleted == false) {\n                temporary[counter] = tasks[i];\n                counter++;\n            }\n        }\n\n        Task[] memory result = new Task[](counter);\n        for (uint256 i = 0; i < counter; i++) {\n            result[i] = temporary[i];\n        }\n        return result;\n    }\n\n    function deleteTask(uint256 taskId, bool isDeleted) public {\n        if (taskToOwner[taskId] == msg.sender) {\n            Task memory _task = tasks[taskId];\n            _task.isDeleted = isDeleted;\n            tasks[taskId] = _task;\n            emit DeleteTask(taskId, isDeleted);\n        }\n    }\n\n    function toggleDone(uint256 _id) public {\n        Task memory _task = tasks[_id];\n        _task.done = !_task.done;\n        tasks[_id] = _task;\n\n        emit TaskToggleDone(_id, _task.done);\n    }\n}\n",
  "sourcePath": "/Users/jairogarcesmontes/Desktop/tasky-contract/contracts/TasksContract.sol",
  "compiler": {
    "name": "solc",
    "version": "0.8.14+commit.80d49f37.Emscripten.clang"
  },
  "schemaVersion": "3.4.7",
  "updatedAt": "2022-05-29T20:16:43.984Z",
  "networkType": "ethereum",
  "devdoc": {
    "kind": "dev",
    "methods": {},
    "version": 1
  },
  "userdoc": {
    "kind": "user",
    "methods": {},
    "version": 1
  }
}